:020000040800F2
:1000000000000120852F0008C12E0008C32E000823
:10001000C52E0008C72E0008C92E000800000000E9
:10002000000000000000000000000000CB2E0008CF
:10003000CD2E000800000000CF2E0008D12E0008B1
:10004000D52F0008D52F0008D52F0008D52F000880
:10005000D52F0008D52F0008D52F0008D52F000870
:10006000D52F0008D52F0008D52F0008D52E000861
:10007000D52F0008D52F0008D52F0008D52F000850
:10008000D52F0008D52F0008D52F0008D52F000840
:10009000D52F0008D52F0008D52F0008D52F000830
:1000A000D52F0008D52F0008D52F0008D52F000820
:1000B000D52F00080000000000000000D52F000828
:1000C000D52F00080000000000000000D52F000818
:1000D00000000000D52F0008D52F00080000000008
:1000E000D52F0008D52F00080000000000000000F8
:1000F0000000000000000000000000000000000000
:10010000000000000000000000000000D52F0008E3
:100110000000000000000000D52F0008D52F0008C7
:10012000D52F0008D52F0008D52F0008D52F00089F
:10013000D52F0008000000000000000000000000B3
:10014000D52F0008D52F0008D52F0008D52F00087F
:10015000D52F0008D52F0008D52F0008D52F00086F
:10016000D52F0008D52F0008D52F0008000000006B
:10017000D52F0008D52F0008000000000000000067
:0C018000D52F0008D52F0008D52F00084F
:1001900010B5054C237833B9044B13B10448AFF3C1
:1001A00000800123237010BD6800002000000000C3
:1001B000043F000808B5034B1BB103490348AFF3E4
:1001C000008008BD000000006C000020043F000813
:1001D000034613F8012B002AFBD1181A0138704787
:1001E00001F0FF01102A2BDB10F0070F08D010F8E8
:1001F000013B013A8B422DD010F0070F42B3F6D1EC
:10020000F0B441EA012141EA014122F007047FF004
:1002100000070023F0E80256083C85EA010586EA5B
:10022000010685FA47F5A3FA87F586FA47F6A5FA97
:1002300087F68EB9EED1F0BC01F0FF0102F00702A3
:1002400032B110F8013B013A83EA010313B1F8D14E
:100250000020704701387047002D06BF354603382F
:10026000073815F0010F07D1013015F4807F02BF68
:10027000013015F4C03F0130F0BC0138704700BFB9
:1002800053B94AB9002908BF00281CBF4FF0FF31FD
:100290004FF0FF3000F07AB9ADF1080C6DE904CEF3
:1002A00000F006F8DDF804E0DDE9022304B0704751
:1002B0002DE9F0478C460D460446089E002B51D18F
:1002C0008A4217466DD9B2FA82FEBEF1000F0BD0FA
:1002D000CEF1200C01FA0EF520FA0CFC02FA0EF712
:1002E0004CEA050C00FA0EF44FEA174A250CBCFB49
:1002F000FAF81FFA87F90AFB18CC45EA0C4508FB07
:1003000009F3AB420AD9ED1908F1FF3280F02381DD
:10031000AB4240F22081A8F102083D44ED1AA4B29C
:10032000B5FBFAF00AFB105544EA054400FB09F955
:10033000A14509D9E41900F1FF3380F00A81A145F4
:1003400040F2078102383C44A4EB090440EA08402B
:100350000021002E61D024FA0EF400233460736073
:10036000BDE8F0878B4207D9002E54D0002186E8E3
:1003700021000846BDE8F087B3FA83F1002940F078
:100380008E80AB4202D3824200F2FA80841A65EB7F
:1003900003050120AC46002E3FD086E81010BDE8D2
:1003A000F08712B90127B7FBF2F7B7FA87FEBEF163
:1003B000000F34D1EB1B3A0C1FFA87FC0121B3FB71
:1003C000F2F8250C02FB183345EA03450CFB08F351
:1003D000AB4207D9ED1908F1FF3002D2AB4200F26F
:1003E000D1808046ED1AA3B2B5FBF2F002FB1055A6
:1003F00043EA05440CFB00FCA44507D9E41900F1CD
:10040000FF3302D2A44500F2B8801846A4EB0C04D6
:1004100040EA08409DE731463046BDE8F087CEF11E
:10042000200405FA0EF307FA0EF720FA04F83A0C46
:1004300025FA04F448EA0308B4FBF2F14FEA184540
:1004400002FB11441FFA87FC45EA044501FB0CF34B
:10045000AB4200FA0EF409D9ED1901F1FF3080F03A
:100460008A80AB4240F2878002393D44EB1A1FFA82
:1004700088F5B3FBF2F002FB103345EA034500FBBD
:100480000CF3AB4207D9ED1900F1FF386FD2AB4244
:100490006DD902383D44EB1A40EA01418FE7C1F1C2
:1004A000200722FA07F88B4005FA01F448EA030313
:1004B00020FA07FE4FEA134CFD404EEA040EB5FB4E
:1004C000FCF94FEA1E440CFB19551FFA83F844EA65
:1004D000054509FB08F4AC4202FA01F200FA01FA00
:1004E00008D9ED1809F1FF3043D2AC4241D9A9F146
:1004F00002091D442D1B1FFA8EFEB5FBFCF00CFB00
:1005000010554EEA054400FB08F8A04507D9E41849
:1005100000F1FF3529D2A04527D902381C4440EA12
:100520000940A4EB0804A0FB02894C45C6464D4691
:1005300015D312D056B1BAEB0E0364EB050404FADE
:1005400007F7CB401F43CC40376074600021BDE803
:10055000F0871846F8E69046E0E6C245EAD2B8EBE6
:10056000020E69EB03050138E4E72846D7E7404669
:1005700091E78146BEE7014678E702383C4445E70B
:10058000084608E7A8F102083D442BE7704700BF82
:1005900038B50A4B054618684FF47A73B0FBF3F090
:1005A00000F02AFC044638B9024629464FF0FF30D5
:1005B00000F0E2FB204638BD012038BD00000020DD
:1005C00010B5032000F0C6FB0020FFF7E1FF044652
:1005D00018B902F09BFB204610BD0124FBE7000088
:1005E000024A136801331360704700BF9000002077
:1005F000014B1868704700BF9000002038B50446D2
:10060000FFF7F6FF631C054618BF0134FFF7F0FF44
:10061000401B8442FAD838BD30B5CC0D04F0040438
:100620001430C1F30451072303FA01F5235802FAE9
:1006300001F123EA05031943215030BD8068C0F35E
:100640008000704737B500230193044600286ED020
:10065000456D25B902F072FBA56584F850502068FD
:100660008368990065D48368DA0069D58368DB0004
:1006700074D50021FFF7E2FF636D13F0100F636D77
:1006800052D1002850D123F4817343F00203206833
:1006900063658368DD076BD5E568636B94F820209C
:1006A0002B43A5682B43657E012A43EA453343EA81
:1006B000024302BF626A02F1FF3243EA4243A26A86
:1006C00022B1E56A02F470722A431343C568404AB6
:1006D0002A401343C360FFF7B1FF23689A681207EB
:1006E00052D52269012A05BF186BE2691A6B02F123
:1006F000FF3206BF20F00F00024322F00F021A6300
:10070000636D23F0030343F001036365084603B000
:1007100030BD019B013B0193019B002BF9D1A5E763
:100720001A6922F0010251E043F0100363650121D0
:10073000ECE7836823F0204323F03F03836092E7D4
:100740008368244A23F0104323F03F0343F080538F
:100750008360214B1B68B3FBF2F3DCE7636D43F06E
:1007600010036365A36D43F00103A365012181E7D5
:100770001A4B9B68DB078FD4194A6568936823F48A
:100780007C132B43936087E70028AAD1D86894F89C
:100790003020257E520020F4804042EA853220F04D
:1007A00002000243DA6094F83820012AB8D1256C9F
:1007B000E26B18692A43656C42F001022A43A56C7A
:1007C00020F4FF602A4320F0040002431A6188E706
:1007D00007C0F0FF400D030000000020000004509F
:1007E000000304507047704708B5806AFFF7FBFFAD
:1007F00008BD7047836A5A6D12F0500F10B55A6DDC
:1008000021D142F400725A651A681168080707D5A9
:10081000D16811F4406F12D1D26812F4005F02E087
:10082000D26812F0020F0AD15A6D22F480725A6512
:100830005A6DD1045EBF5A6D42F001025A651846E6
:10084000FFF7D0FF10BDD20603D51846FFF7D1FF42
:1008500010BDDB6CBDE810405B6B1847806A08B5C3
:10086000436D43F040034365836D43F004038365A8
:10087000FFF7BFFF08BD0000F7B50023019390F814
:100880005030012B05460C4600F05081012380F8C2
:1008900050300068FFF7D2FE002840F041814B68DD
:1008A000052B08D8023B032B38D8DFE803F00230D1
:1008B00032340C236360616828688E0906F00C06E8
:1008C00000F1300701F01F011F2303FA01F2F35971
:1008D00023EA02032268C2F384628A401343F3517D
:1008E000FFF7ACFE2B689A68160740F12181286853
:1008F0008368D90740F141812168C54B194240F016
:10090000C1800020002385F8503003B0F0BD1223D1
:10091000D0E71823CEE74FF48073CBE70623C9E76F
:10092000DEF86010C3F31200C1F384670EF16406B1
:1009300000283AD1C3F38460874240F0558121F00A
:100940000041CEF860102368DEF86410C3F312078C
:10095000C1F384609FBBC3F38463834240F0498149
:1009600021F00041316023689168C3F3120702F15E
:100970000806C1F3846077BBC3F38463834240F00D
:100980003F8121F000413160236802F10C00D26800
:10099000C3F31206C2F384614EBBC3F384638B427C
:1009A00004BF22F000420260A1E793FAA3F0B0FA7C
:1009B00080F08742C3D0DEF86410C1F3846093FAFC
:1009C000A3F3B3FA83F38342CAD09168236802F198
:1009D0000806C1F3846093FAA3F3B3FA83F3834266
:1009E000CFD002F10C00D2682368C2F3846193FA7D
:1009F000A3F3B3FA83F3D2E793FAA3F2B2FA82F243
:100A0000013202F01F02092A10D993FAA3F2B2FAB6
:100A100082F20132920602F0F84693FAA3F1B1FA9B
:100A200081F1013101F01F02012117E093FAA3F6D1
:100A3000B6FA86F60136B60606F0F84693FAA3F142
:100A4000B1FA81F1013101F01F020121BAE093FAFC
:100A5000A3F1B1FA81F1BCE006F0F846914041EA19
:100A6000060257B99B0E013303F01F0303EB43014A
:100A70001E39090541F00071B1E093FAA3F3B3FA0E
:100A800083F3F0E7634B644A9868914200F0E074A6
:100A90001DD102023FF535AF2968604A91427FF4CB
:100AA00030AF9A6822F0E072224342F400029A606A
:100AB0005B4B5C4A1B68B3FBF2F20C23534301937C
:100AC000019B002B3FF41DAF019B013BF7E7564A0A
:100AD000914211D110F080707FF413AF2968A2F118
:100AE000F74291427FF40DAF9A6822F0E072224300
:100AF00042F080729A6005E74C4A91427FF401AF60
:100B000010F480007FF4FDAE2968444A91427FF4DE
:100B1000F8AE9A6822F0E072224342F48002E9E7DC
:100B20006A6D42F020026A651846EBE60220ECE6A8
:100B300000287FF4DCAEA26821681846FFF76CFD40
:100B40002669D5F800E02368DEF80C10042E0EF1BB
:100B500060023FF4E5AEC1F3C1014800616903F0F2
:100B6000F843814043F00043194352F82600304BCC
:100B70000340194342F82610B9E6E66823682D4A77
:100B8000D0F8B01006F0180EC3F3120722FA0EF2D6
:100B90001A4021EA07010A43C0F8B020264A9642CB
:100BA0007FF4AAAE002F7FF427AF9E0E013606F029
:100BB0001F02092A4FF001014FEA86663FF64CAF4B
:100BC00006F0F846914041EA0602002F7FF43FAF5D
:100BD000990E013101F01F0101EB4101090511439B
:100BE000A268FFF719FD87E6DEF86410C1F38460A0
:100BF000B1E69168236802F10806C1F38460BBE6A0
:100C000002F10C00D2682368C2F38461C5E600BF1C
:100C10000000088000030450000052C70000045088
:100C200000000020400D0300000084CB0100008084
:100C300000F0FF03FFFF070000007F400268936899
:100C400070B50446D80701D5002070BD9168144BDB
:100C5000194214D19368134D2B4043F00103936064
:100C6000FFF7C6FC064622681368DB07ECD49368DE
:100C7000D9070ED5FFF7BCFC801B0228F3D9636DA2
:100C800043F010036365A36D43F00103A3650120E6
:100C900070BD93682B4043F001039360EAE700BF07
:100CA0003F000080C0FFFF7FF8B5044600680D4696
:100CB0001646FFF7C3FC0746002842D194F850308F
:100CC000012B3ED0012384F850302046FFF7B6FFB9
:100CD000002833D1636DE06C216823F4706323F046
:100CE000010343F480736365636D13F480531CBF89
:100CF000A36D23F00603A365134BC362134B036379
:100D0000134B43631C230B60002384F850304B6863
:100D100043F010034B60CB6843F00103CB602A46DD
:100D20003346403100F0E0F82268936823F0004336
:100D300023F03F0343F004039360F8BD84F8507040
:100D4000F8BD0220F8BD00BFF5070008E90700085C
:100D50005D080008074AD36823F4E0631B041B0CFA
:100D600043F0BF63000243F4003300F4E060034348
:100D7000D360704700ED00E0174B30B5DC68C4F37A
:100D80000224C4F10703251D042B28BF0423062DCC
:100D90004FF0010505FA03F303F1FF338CBF033C69
:100DA00000241940A14005FA04F4013C2240002827
:100DB00042EA01024FEA0212AFBF00F1604000F0C8
:100DC0000F00064BD2B2A5BF00F56140D2B21A5453
:100DD00080F8002330BD00BF00ED00E014ED00E01E
:100DE0004209012300F01F0003FA00F0014B43F811
:100DF0002200704700E100E00138B0F1807F0AD2A4
:100E0000064B074A5860F02182F823100020072281
:100E100098601A6070470120704700BF10E000E042
:100E200000ED00E030B500284ED00168274B994214
:100E30004FF0140440D8264A0A44B2FBF4F2920060
:100E40004264A3F207430364022380F825308468D8
:100E5000C36805690A6823432B4345692B438569A9
:100E60002B43C5692B43056A22F4FF4222F070022E
:100E70002B431343B4F5804F0B6014D0026C154B19
:100E80009A420CBF14491549436C0A6803F01C03CD
:100E90000F249C4022EA04020A6042680C6802FAAD
:100EA00003F323430B6000230122C36380F8243043
:100EB00080F82520184630BD094B0B44B3FBF4F3F2
:100EC0009B004364074BBEE7012030BD070402408E
:100ED000F8FFFDBF00000240A8000240A804024045
:100EE000F8FBFDBF00040240F0B590F82440012C4F
:100EF00038D090F825500124EDB2A54280F8244066
:100F00004FF000064FF002042AD180F82540046813
:100F1000C6632668076C26F001062660466C06F05C
:100F20001C06B5407D60636083680568102B036B09
:100F30000BBFA260A160E160E2604BB1236843F0A7
:100F40000E0323602B6843F001032B600020F0BDEB
:100F5000236823F004032360236843F00A03F0E7C7
:100F600080F824600220F0BD016C426C036870B40C
:100F700002F01C020E681D680424944026420ED024
:100F800015F0040F0BD01A6892065EBF1A6822F0A3
:100F900004021A60036B4C6073B370BC18470224E0
:100FA0009440264212D015F0020F0FD01A68950611
:100FB00006D41A6822F00A021A60012380F825304C
:100FC00000234C6080F82430C36AE5E7082494408D
:100FD000344211D02C070FD51C6824F00E041C607D
:100FE000012303FA02F24A60C36380F8253000232C
:100FF00080F82430436BCFE770BC70472DE9F04F89
:1010000085B00B68DFF85881534A01934FF00F0900
:101010000023019CDC4002D105B0BDE8F08F012423
:1010200004FA03FA019C14EA0A0500F08F804C6868
:1010300024F0100BBBF1020F11D1DF0800EB870782
:1010400003F0070E3E6A4FEA8E0E09FA0EFC26EAFE
:101050000C0C0E6906FA0EF646EA0C063E624FEAE2
:10106000430C0327066807FA0CF7FF4304F0030E4E
:101070003E400EFA0CFE0BF1FF3B4EEA0606BBF1BA
:10108000010F066011D8866806EA070BCE6806FADB
:101090000CFE4EEA0B068660466826EA0A0AC4F38E
:1010A00000169E4046EA0A064660C66837408E68CB
:1010B00006FA0CF63743E600C76047D5D8F86060FB
:1010C00046F00106C8F86060D8F8606023F00307B6
:1010D00007F1804706F0010607F58037039603F015
:1010E000030E039EBE684FEA8E0E09FA0EFCB0F1A5
:1010F000904F26EA0C0C2BD0184EB0422AD006F5A1
:101100008066B04214BF0726022606FA0EF646EAAB
:101110000C06BE601668EF4314F4803F0CBF3E40DF
:101120002E431660566814F4003F0CBF3E402E4319
:101130005660966814F4801F0CBF3E402E439660A4
:10114000D668A40254BF3E402E43D660013360E708
:101150000026DAE70126D8E7000401400004004831
:10116000001002400AB181617047816270470368D4
:101170009A69910744BF00229A629A69D2075EBFBA
:101180009A6942F001029A61704730B5039C056884
:101190002343640D04F4806444F07F7444F45834B1
:1011A0006868C1F3090144F47F74194344F00304EF
:1011B00041EA024120EA04042143696030BD2DE97F
:1011C000F041069F0446884616461D4622689369EC
:1011D00038EA03030CBF01230023B34202D00020EE
:1011E000BDE8F0816B1CF2D0FFF702FAC01B85420C
:1011F00001D3002DEAD1636C43F020036364202304
:1012000084F84130002384F8423084F840300120D3
:10121000BDE8F081036870B50446986910F01000CD
:101220000D46164616D170BD691C14D0FFF7E0F9C3
:10123000801B854200D36DB9636C43F02003636467
:10124000202384F84130002384F8423084F8403071
:10125000012070BD236899698A06E5D510222025F2
:10126000DA612046DD61FFF782FF2268536823F0D0
:10127000FF7323F48B3323F4FF7323F001035360D4
:10128000636C43F00403636484F84150DBE770B59A
:1012900004460D46164623689B699B0701D500202E
:1012A00070BD324629462046FFF7B4FFA0B96A1C3C
:1012B000F1D0FFF79DF9801B854201D3002DEAD1C3
:1012C000636C43F020036364202384F841300023DF
:1012D00084F8423084F84030012070BD70B5044677
:1012E0000D46164623689B699B0601D5002070BDFC
:1012F000324629462046FFF78DFF90B9FFF778F96F
:10130000801B854201D3002DECD1636C43F0200398
:101310006364202384F84130002384F8423084F849
:101320004030012070BD10B5044600284AD090F826
:10133000413003F0FF021BB980F8402001F04CFD62
:10134000242384F841302368E1681A6822F00102FE
:101350001A60626822F070621A619A68012922F4A8
:1013600000429A60A26824D142F400429A605A680E
:10137000616942F0007242F400425A60DA6822F475
:101380000042DA6022690A43A16942EA0122DA6076
:10139000216AE2690A431A601A6842F001021A607F
:1013A00000202023606484F84130206384F84200E8
:1013B00010BD42F4044202299A6004BF4FF4006257
:1013C0005A60D4E7012010BD2DE9F743984690F804
:1013D0004130202B04460E46914640F0848090F820
:1013E0004030012B7FD0012780F84070FFF700F9D3
:1013F0001923054600903A464FF400412046FFF776
:10140000DEFE18B1012003B0BDE8F083212384F88B
:101410004130102384F842306064A4F82A80638D40
:10142000C4F824909BB2FF2B6063304B26D9FF2277
:10143000228500934FF0807331462046FFF7A5FECA
:10144000638D0A999BB22A462046FBB9FFF746FFF7
:101450000028D7D123682021D9615A6822F0FF7271
:1014600022F48B3222F4FF7222F001025A6084F8D7
:10147000411084F8400084F84200C4E7628D009374
:1014800092B222854FF00073D2B2D5E7FFF7FFFE8C
:101490000028B7D1636A226813F8011B9162636266
:1014A000638D228D013B9BB26385638D013A92B2BD
:1014B0009BB22285002BC3D0002AC1D100950A9B84
:1014C00080212046FFF77BFE00289BD1638D9BB2D5
:1014D000FF2B03D9FF2222850090ABE7628D00909D
:1014E00092B22285CEE702208DE700BF0020008067
:1014F0002DE9FF471D460023039390F84130202B30
:10150000044690467DD103689B6913F4004378D16B
:1015100090F84020012A74D0012280F84020C1F3C5
:101520000906242280F8412046F420594364E368E8
:101530002268012B06BF46F0007343F400534B466C
:101540005360FFF755F8074623689A699B69C2F311
:101550004012C3F3001302B96BB123689A69009774
:1015600012F010022B4624D120212046FFF727FE3F
:10157000A8B101201AE06B1CE6D0FFF739F8C01BB8
:10158000854201D3002DDFD1202384F84130636CE4
:1015900043F020036364002384F84030E9E72268C5
:1015A0002023D36184F8413084F8400004B0BDE8C2
:1015B000F087002220212046FFF701FE0246002886
:1015C000D7D1236810214FF0200AD961C3F81CA09D
:1015D000039941450ED1596841F480415960204634
:1015E00000972B465146FFF7EAFD0028C1D123683A
:1015F000C3F81CA0039B01330393039B984596D823
:10160000C2E70220D2E790F84120D2B2202A10B5DA
:101610001DD190F84030012B19D0242380F841309F
:1016200003681C6824F001041C601C6824F48054C6
:101630001C601C6821431960196841F001011960A0
:10164000002380F8412080F84030184610BD022069
:1016500010BD10B590F84140E4B2202C1CD190F898
:101660004030012B18D0242380F8413003681A68D9
:1016700022F001021A601A6822F4706242EA012123
:1016800019601A6842F001021A60002380F8414094
:1016900080F84030184610BD022010BD024A136881
:1016A00043F480731360704700700040024B186869
:1016B00000F4C060704700BF00700040174B1A680C
:1016C000B0F5007F02F4C0621CD1B2F5007F15D0E6
:1016D0001A6822F4C06242F400721A60104A11685B
:1016E00032224A430F49B2FBF1F2194601325869DE
:1016F000400500D522B94B695B050DD40020704729
:10170000013AF4E7B2F5806F1FBF1A6822F4C06295
:1017100042F480621A60F1E70320704700700040D5
:101720000000002040420F0037B51E4DAB6DDA00BF
:10173000044618D5FFF7BAFFB0F5007F23D1802CFF
:1017400029D9A02C8CBF02200120174A136823F04E
:10175000070303431360136803F00703181A18BF45
:10176000012003B030BDAB6D43F08053AB65AB6D72
:1017700003F080530193019BFFF798FFAB6D23F0BB
:101780008053AB65D8E7802C07D808D0A4F170034C
:1017900058425841D9E70020D7E70320D5E7022077
:1017A000D3E700BF0010024000200240254B9A689A
:1017B000D96812F00C0205D00C2A15D101F00301F2
:1017C000012918D119682048090755BFD3F894108A
:1017D0001968C1F30321C1F3031150F8210082B34A
:1017E0000C2A09D000207047042A29D0082A17485B
:1017F00018BF002070470020D968DA6801F00301A3
:10180000C2F30212022902F1010205D0032912D00B
:10181000D968C1F3062103E0D9680D48C1F3062158
:10182000DB68B0FBF2F0C3F34163013348435B0074
:10183000B0FBF3F07047D9680448C1F30621EFE725
:101840000348704700100240DC40000800127A0094
:101850000024F4002DE9F743054608B9012046E0CD
:10186000A84C0368A668E768DB0606F00C0607F0DC
:10187000030772D51EB10C2E51D1012F4FD1236811
:10188000980702D5AB69002BE8D02368286A1907AE
:1018900056BFD4F8943023681B0903F0F003834249
:1018A00028D2FFF741FF0028D8D1236843F008036E
:1018B000236023682A6A23F0F003134323606368DC
:1018C000EA6923F47F4343EA02236360FFF76EFF74
:1018D000A3688D4AC3F30313D35C03F01F03D840FE
:1018E0008A4B18600020FEF753FE002835D003B065
:1018F000BDE8F083236843F008032360236823F0E6
:10190000F003034323606368EA6923F47F4343EAF7
:1019100002236360FFF708FF0028D7D09EE7AB697A
:10192000002B3AD0236843F001032360FEF760FEEA
:10193000804623689A0728D5236843F0080323606C
:1019400023682A6A23F0F003134323606368EA697B
:1019500023F47F4343EA022363602B68D8072DD426
:101960002B6899076BD42B68180700F1A0802B68AF
:10197000590700F1CD802B68990600F13681AB6ADA
:10198000002B40F05C810020B1E7FEF731FEA0EBB8
:1019900008000228CDD90320A9E7236823F001031A
:1019A0002360FEF725FE804623689B07D5D5FEF70A
:1019B0001FFEA0EB08000228F6D9ECE7082E03D0A2
:1019C0000C2E08D1032F06D123689A03C8D56B6863
:1019D000002BC5D142E76B68B3F5803F10D1236877
:1019E00043F480332360FEF703FE804623689B03A5
:1019F000B6D4FEF7FDFDA0EB08006428F6D9CAE7CF
:101A0000B3F5A02F04D1236843F480232360E6E7D5
:101A1000226822F480322260226822F4802222602E
:101A2000002BE0D1FEF7E4FD80462368980397D5AC
:101A3000FEF7DEFDA0EB08006428F6D9ABE7042E24
:101A400003D00C2E10D1022F0ED12368590503D5D7
:101A5000EB68002B3FF402AF63682A6923F0F85368
:101A600043EA026363607EE7EB687BB1236843F47B
:101A700080732360FEF7BCFD074623685A05EBD44C
:101A8000FEF7B6FDC01B0228F7D984E7236823F4CC
:101A900080732360FEF7ACFD074623685B057FF586
:101AA00062AFFEF7A5FDC01B0228F6D973E76B698C
:101AB0009BB1D4F8943043F00103C4F89430FEF79E
:101AC00097FD0746D4F894309A073FF550AFFEF7DC
:101AD0008FFDC01B0228F5D95DE7D4F8943023F0C0
:101AE0000103C4F89430FEF783FD0746D4F8943020
:101AF0009B077FF53CAFFEF77BFDC01B0228F5D9A5
:101B000049E700BF00100240C34000080000002069
:101B1000A36DD80029D4A36D43F08053A365A36DB2
:101B200003F080530193019B4FF00108714F3B6814
:101B3000D9051DD5AB68012B2BD1D4F8903043F0DB
:101B40000103C4F89030FEF753FD41F2883907468F
:101B5000D4F890309B0742D5B8F1000F3FF40BAF9B
:101B6000A36D23F08053A36505E74FF00008DDE780
:101B70003B6843F480733B60FEF73AFD81463B6867
:101B8000DA05D7D4FEF734FDA0EB09000228F6D918
:101B900001E7052B06D1D4F8903043F00403C4F8D4
:101BA0009030CAE7D4F8902022F00102C4F89020C7
:101BB000D4F8902022F00402C4F89020002BC2D167
:101BC000FEF716FD41F288390746D4F890309807A1
:101BD000C2D5FEF70DFDC01B4845F6D9DBE6FEF782
:101BE00007FDC01B4845B3D9D5E66B6A9BB1D4F855
:101BF000983043F00103C4F89830FEF7F9FC07462B
:101C0000D4F898309A073FF5BAAEFEF7F1FCC01B46
:101C10000228F5D9BFE6D4F8983023F00103C4F8C0
:101C20009830FEF7E5FC0746D4F898309B077FF51F
:101C3000A6AEFEF7DDFCC01B0228F5D9ABE60C2EE4
:101C40003FF40CAE022B236823F08073236036D15F
:101C5000FEF7CEFC0646236898012AD4AB6B6A6B6C
:101C6000DB0643EA0223EA6A13432A6B013A43EA9A
:101C70000213EA6B5208013A43EA42532A6C5208B3
:101C8000013A43EA4263E360236843F080732360D0
:101C9000E36843F08073E360FEF7AAFC054623681F
:101CA00099013FF570AEFEF7A3FC401B0228F6D960
:101CB00071E6FEF79DFC801B0228CCD96BE62368F9
:101CC0001A015EBFE36823F00303E360E36823F0D7
:101CD000887323F48033E360FEF78AFC05462368AB
:101CE0009B017FF550AEFEF783FC401B0228F6D91E
:101CF00051E600BF007000402DE9F0410E46044659
:101D000010B90120BDE8F081404A136803F00703D1
:101D10008B4229D32368D90731D421688A075BD441
:101D20003A4A136803F007039E425DD311F0040F93
:101D3000374D64D10B0706D5AB68226923F4605395
:101D400043EAC203AB60FFF731FDAB68314AC3F32E
:101D50000313BDE8F041D35C03F01F03D8402E4BC2
:101D600018600020FEF714BC136823F007030B4330
:101D70001360136803F007039942C2D1CAE762688F
:101D8000234D032A2B681BD113F0007FB9D0AB6819
:101D900023F003031343AB60FEF72AFC41F28838BB
:101DA0000746AB68626803F00C03B3EB820FB4D054
:101DB000FEF71EFCC01B4045F3D90320BDE8F081AF
:101DC000022A02D113F4003FE0E712B913F0020F28
:101DD000DCE713F4806FD9E70D4AA068936823F01D
:101DE000F003034393609BE7136823F00703334337
:101DF0001360136803F007039E4282D196E7AB6835
:101E0000E26823F4E0631343AB6093E700200240F1
:101E100000100240C340000800000020054B064AA5
:101E20009B68C3F30223D35C044A106803F01F03CA
:101E3000D840704700100240D34000080000002046
:101E4000054B064A9B68C3F3C223D35C044A10685F
:101E500003F01F03D840704700100240D340000831
:101E600000000020F8B5444BDA6812F0030F054675
:101E70000E461C46006839D0DA6802F0030282423E
:101E80004BD1002A49D0DB686A68C3F302130133DF
:101E9000934242D1236823F080632360FEF7A8FBBE
:101EA000074623681A0141D4AF68002E45D0012EA1
:101EB0004FD12269286922F4C002400822F4FE4270
:101EC000013842EA072242EA40522261236843F085
:101ED00080632360FEF78CFB064623681B0145D513
:101EE0002369AA69134323610020F8BD022810D09A
:101EF000032814D0012810D11B689F07F5D5E3688B
:101F00006A6823F07303013A184340EA0210E06064
:101F1000C0E71B6813F4806FF1D10120F8BD1A6887
:101F20009103ECD41B6813F4802FF5E7FEF760FBF8
:101F3000C01B0228B5D90320F8BD2269E96822F048
:101F40007842C90641EA072322F4FE421343236183
:101F5000BCE72369686923F0C063400823F4FE43AB
:101F6000013843EA072343EA4063F0E7FEF740FB0A
:101F7000801B0228B1D9DEE7001002402DE9F743AB
:101F8000056815F4006504460ED0C16BB1F5000F6D
:101F900053D0B1F5400F55D000295ED10430FFF782
:101FA00061FF054600284DD023689E0363D5934EFC
:101FB000B36DD80040F116810027DFF84482D8F8CD
:101FC000003043F48073C8F80030FEF711FB8146FF
:101FD000D8F80030D90542D5002D47D1D6F8903039
:101FE00013F4407314D0226D934211D0D6F8903080
:101FF000D6F8902042F48032C6F89020D6F890208F
:1020000023F4407322F48032C6F89020C6F8903052
:10201000DA0709D5FEF7ECFA41F288398046D6F89E
:1020200090309B0740F1C080D6F89030226D23F4A9
:1020300040731343C6F8903018E0704AD36843F4F5
:102040008033D3606D4AE16BD2F8883023F44003CB
:102050000B43C2F888300025A6E70125A4E7FEF768
:10206000C7FAA0EB09000228B2D903251FB1B36D4E
:1020700023F08053B3652368DF0708D55F49206AE2
:10208000D1F8882022F003020243C1F888209E077D
:1020900008D55A49606AD1F8882022F00C02024320
:1020A000C1F88820980608D55449A06AD1F888203C
:1020B00022F440620243C1F88820990508D54F49AF
:1020C000606BD1F8882022F440220243C1F88820B6
:1020D0005A0508D54949A06BD1F8882022F440124E
:1020E0000243C1F888205F0608D54449E06AD1F868
:1020F000882022F440520243C1F88820DE0508D52A
:102100003E49206BD1F8882022F440320243C1F8C6
:10211000882098040FD5394A216CD2F8883023F0F2
:1021200040630B43B1F1006FC2F8883044D1D368EB
:1021300043F48013D360236859030FD52F4A616C91
:10214000D2F8883023F040630B43B1F1006FC2F83E
:1021500088303CD1D36843F48013D36023685A0499
:1021600012D52649A26CD1F8883023F0405313438E
:10217000B2F1805FC1F8883006D10221201DFFF73F
:1021800071FE002818BF054623681B0408D51B4AAA
:10219000E16CD2F8883023F080430B43C2F88830DA
:1021A000284603B0BDE8F083FEF722FAA0EB080052
:1021B00048457FF634AF58E7B1F1806FBBD10121BC
:1021C000201DFFF74FFE002818BF0546B3E7B1F109
:1021D000806FC3D10121201DFFF744FE002818BFE6
:1021E0000546BBE7B36D43F08053B365B36D03F0B1
:1021F00080530193019B0127DFE600BF00100240DE
:1022000000700040024A136843F0040313607047F3
:10221000001002400268C169F8B50446836800698D
:10222000156803436069034382480B432840034316
:1022300013605368E06823F44053034353607E4BBC
:10224000A0699A421CBF236A1843936823F4306341
:1022500003439360794B9A4214D103F55843784A6B
:10226000D3F8883003F00303B1F5004FD35C40F09E
:10227000AA80082B20D8DFE803F0778F921F9B1FDE
:102280001F1F9E006F4B9A4207D103F5E6336E4A3B
:10229000D3F8883003F00C03E6E7674B9A4240F02E
:1022A000C28003F5C833D3F8885005F44065B5F50E
:1022B000806F2AD006D815B30122002323666366F7
:1022C0001046F8BDB5F5006F06D0B5F5406FF3D1F7
:1022D0004FF40040082501E05C480225626802EBEB
:1022E00042038342E8D8B0EB023FE5D8082D38D846
:1022F000DFE805F00F3726372E3737373100FFF785
:102300008DFD0028EAD10246D7E7FFF74FFA0425F2
:10231000F7E7FFF783FD62684FF4807156080027E6
:10232000E1FB0067002330463946FDF7A9FF002294
:10233000474BA0F540719942BED82368D860BCE7EE
:102340004448550800230021401941F10001ECE701
:10235000FFF72CFADFE750080021002310F50000FA
:10236000F3E701220020E3E7FFF758FD61684A0820
:1023700002EB4003B3FBF1F39BB20022A3F1100088
:102380004FF6EF71884297D823F00F012068C3F30E
:1023900042030B43C36090E7FFF752FDE6E7606836
:1023A000430803F1F47303F59043B3FBF0F3E3E761
:1023B000FFF7FCF9DAE76068430803F58033F4E7D8
:1023C00001220023DAE7082B30D8DFE803F00518F4
:1023D0001B2F242F2F2F2700FFF720FD626800EB13
:1023E0005203B3FBF2F39BB20022A3F110004FF6AD
:1023F000EF7188423FF660AF2168CB605DE7FFF781
:102400001FFDEBE76068430803F5740303F5105301
:10241000B3FBF0F3E7E7FFF7C9F9DFE760684308CC
:1024200003F50043F4E7B1F5004FC9D001220023C2
:10243000DBE700BFF369FFEF008000400038014098
:102440001C3F000800440040203F00080024F40026
:10245000FFFC0F00000024F4436ADA0710B506D52C
:102460000168846A4A6822F4003222434A609C0769
:1024700006D50168C46A4A6822F4803222434A6061
:10248000590706D50168046B4A6822F4802222436A
:102490004A601A0706D50168446B4A6822F4004274
:1024A00022434A60DC0606D50168846B8A6822F400
:1024B000805222438A60990606D50168C46B8A68F7
:1024C00022F4005222438A605A060FD50168046C38
:1024D0004A6822F480122243B4F5801F4A6005D175
:1024E0004A68446C22F4C00222434A601B0606D5A7
:1024F0000268816C536823F400230B43536010BDC2
:102500002DE9F041069D04460F461646984621687F
:10251000CA6937EA02030CBF01220022B24202D08C
:102520000020BDE8F0816B1CF2D09DB923681A68C9
:1025300022F4D0721A609A6822F001029A60202375
:1025400084F8713084F87230002384F870300320EE
:10255000BDE8F081FEF74CF8A0EB08008542D6D22A
:10256000E4E72DE9F3411F4690F87130202B044633
:102570000D4690464AD1002946D0002A44D090F812
:102580007030012B42D0012380F870300023436764
:10259000212380F87130FEF72BF8A4F8508006460E
:1025A000A4F85280B4F85220009792B2334652B940
:1025B00040212046FFF7A4FF58B9202384F871304A
:1025C00084F8700006E0002280212046FFF798FF83
:1025D00018B1032002B0BDE8F081A3682268B3F50A
:1025E000805F0DD123695BB935F8023BC3F3080363
:1025F0001385B4F85230013B9BB2A4F85230D1E7B6
:102600002B7813850135F4E70120E3E70220E1E7A9
:102610002DE9F341984690F87230202B04460D4680
:10262000164660D100295CD0002A5AD090F870304C
:10263000012B58D0012380F87030002343672223F8
:1026400080F87230FDF7D4FFA368A4F85860B3F5A2
:10265000805F0746A4F85A6015D123698BB940F210
:10266000FF13A4F85C30B4F85C60B4F85A0080B290
:10267000B8B9202384F8723084F8700002B0BDE845
:10268000F081FF23EDE723B92369002BF9D07F23E5
:10269000E7E7B3F1805FE6D12369002BF7D03F2352
:1026A000DFE7CDF800803B46002220212046FFF7DF
:1026B00027FFD0B9A368B3F5805F23680CD12269E6
:1026C00052B99B8C334025F8023BB4F85A30013B99
:1026D0009BB2A4F85A30C8E79B8C33402B7001356D
:1026E000F3E70120CAE70220C8E70320C6E773B575
:1026F000044600264667FDF77BFF23681B681A0720
:10270000054617D423681B685B070AD56FF07E4324
:10271000009300222B464FF480012046FFF7F0FE85
:10272000A0B92023002084F8713084F8700084F868
:1027300072300CE06FF07E430093324603464FF454
:1027400000112046FFF7DCFE0028DBD0032002B09A
:1027500070BD10B5044660B390F8713003F0FF020D
:102760001BB980F8702000F06DFB2268242384F8E8
:102770007130136823F0010313602046FFF74AFD10
:10278000012816D0636A13B12046FFF765FE23685F
:102790005A6822F490425A609A6822F02A029A609B
:1027A0001A6842F0010220461A60BDE81040FFF7A7
:1027B0009EBF012010BD000013B50446FDF708FDC3
:1027C0000A230093224683B2E4210248FEF7FCFD6F
:1027D00002B010BDA000002008B5A0F11E030A2B16
:1027E0000AD80E4800F098FC0D48FFF7E5FF64207A
:1027F000BDE80840FDF702BFA0F155030A2B04D83D
:10280000084800F089FC0848EFE769380A28EED844
:10281000064800F081FC0648E7E700BF5740000883
:102820006B4000087A4000088E4000089C40000879
:10283000B140000808B5A0F11E030A2B0AD80E48C3
:1028400000F06AFC0D48FFF7B7FF6420BDE80840C0
:10285000FDF7D4BEA0F155030A2B04D8084800F0B8
:102860005BFC0848EFE769380A28EED8064800F014
:1028700053FC0648E7E700BF574000082D3F00081B
:102880007A400008403F00089C4000084B3F000889
:1028900008B5A0F11E030A2B0AD80E4800F03CFC34
:1028A0000D48FFF789FF6420BDE80840FDF7A6BE8C
:1028B000A0F155030A2B04D8084800F02DFC084865
:1028C000EFE769380A28EED8064800F025FC0648EC
:1028D000E7E700BF57400008EC3F00087A400008D7
:1028E000004000089C4000080C40000808B5A0F11A
:1028F0001E030A2B0AD80E4800F00EFC0D48FFF705
:102900005BFF6420BDE80840FDF778BEA0F15503E9
:102910000A2B04D8084800F0FFFB0848EFE76938A5
:102920000A28EED8064800F0F7FB0648E7E700BFA4
:1029300057400008194000087A4000082D40000860
:102940009C4000084440000808B5A0F11E030A2B73
:102950000AD80E4800F0E0FB0D48FFF72DFF642079
:10296000BDE80840FDF74ABEA0F155030A2B04D884
:10297000084800F0D1FB0848EFE769380A28EED88C
:10298000064800F0C9FB0648E7E700BF57400008CB
:102990005A3F00087A400008673F00089C40000842
:1029A0007B3F00082DE9F041ACB014244422002103
:1029B00006A800F035FB2246002101A800F030FBFC
:1029C0000021542217A800F02BFBFEF767FE234AD4
:1029D000D2F8903023F01803C2F890300025022678
:1029E0000694602301244FF01008072706A80E93D1
:1029F00008940C940D95109611941294CDF84C8077
:102A0000149715961696FEF725FF0F23214601937E
:102A100001A803230293039504950595FFF76CF92C
:102A200044F2420317934FF08053299317A84FF0B5
:102A300080731E932095229518941994CDF8688080
:102A40001B971C961D96FFF799FA4FF40070FEF73E
:102A500035FEFFF7D7FB2CB0BDE8F0810010024037
:102A600080B5964D8CB0FDF7ABFDFFF79BFF1422B0
:102A7000002106A800F0D4FAEB6C914843F004035F
:102A8000EB64EB6C03F004030393039BEB6C43F0E8
:102A90000103EB64EB6C03F001030493049BEB6C08
:102AA00043F00203EB64EB6C03F002030022059396
:102AB000082100240127059BFEF754FB082306A9E3
:102AC0007F480693079708940994FEF797FAAB6C32
:102AD0003B43AB64AB6C7B4D3B40224621460293AB
:102AE0000B204FF01809029BFEF746F90B20FEF76A
:102AF00077F921464A460DEB090000F091FA724A37
:102B0000AC604FF4403304264FF00508284685E8B2
:102B10000C006E61EC602F612C766F76C5F81C801E
:102B200085F82040AC62EC6285F830706C6385F803
:102B30003840FDF787FD654B0693062307930DEBA1
:102B400009017F23284609930A9608940C260B94C2
:102B5000FDF792FE5E4B06930DEB090128460796A2
:102B6000FDF78AFE5B4B06930DEB09011223284605
:102B70000793FDF781FE584B06930DEB090128469C
:102B8000CDF81C90FDF778FE544B06930DEB090130
:102B90004FF4807328460793FDF76EFE5048514965
:102BA00046614FF4E133504E846080E80A00C4600F
:102BB00004618461C46104624462FFF7CAFD4B4B47
:102BC0004B48B46086E809003046F76034617461B0
:102BD000B461F4613462FEF7A6FB21463046FEF78D
:102BE00012FD21463046FEF734FD42464149284653
:102BF000FEF75AF80A230222E4213046FEF778FC59
:102C00000028F7D13C483B4E3C4F3D4CFFF7D4FDEC
:102C10004FF4FA70FDF7F2FC3089B388728831887E
:102C20000190F0880090384600F002FA31887288EE
:102C3000B420A1F61831414340F23E3391FBF3F149
:102C4000B3882180A3F62C33434340F22A3593FB0B
:102C5000F5F3F588A380A2F65432A5F6543540F278
:102C6000023E4243454392FBFEF295FBFEF5B6F869
:102C700008E0E580AEF6B83E00FB0EF0ADB240F2E3
:102C80009E2E90FBFEF0208180B29BB289B26280C2
:102C900092B2019000951B4800F0CAF92088FFF716
:102CA0009BFD6088FFF7C6FDA088FFF7F1FDE08877
:102CB000FFF71CFE2089FFF747FEADE7001002403A
:102CC00000040048EC0000200000045000018021B6
:102CD0000002B0250004002A0008302E00106032E7
:102CE000A401002000440040A0000020BB7C700034
:102CF0000054004094000020853F0008933F0008E6
:102D000050010020BE3F0008704700000A4B1A6EB9
:102D100042F001021A661A6E82B002F001020092BD
:102D2000009A9A6D42F080529A659B6D03F0805331
:102D30000193019B02B070470010024030B5054678
:102D400089B01422002103A800F06AF92A681F4BF9
:102D50009A4238D103F17043A3F5F8331C4CDA6C76
:102D600042F40052DA64DA6C02F400520192019AE1
:102D7000DA6C42F00102DA64DB6C03F001030293C7
:102D8000029BF82303934FF090400B2303A9049375
:102D9000FEF734F9802222614FF480720D4B62619C
:102DA0004FF480622360A2610023202220466360EA
:102DB000A360E360E2612362FEF734F808B1FFF735
:102DC000A3FFEC64A56209B030BD00BF0000045051
:102DD0005C0100200800024010B5044688B01422AF
:102DE000002103A800F01CF92268144B9A4222D15A
:102DF000134CE36C43F00103E364E36C03F0010361
:102E00000193019B4FF4C0630393122304930123A6
:102E100005930323069303A904234FF090400793DF
:102E2000FEF7ECF8A36D43F40013A365A36D03F460
:102E300000130293029B08B010BD00BF0054004075
:102E40000010024030B5044689B01422002103A8C6
:102E500000F0E6F82268194B9A422DD103F5E633CB
:102E600003249A6D42F400329A659A6D02F400329E
:102E70000192019ADA6C42F00102DA64DB6C06948A
:102E800003F001030293029B04230393022507230B
:102E900003A94FF0904007930495FEF7AFF84FF465
:102EA0000043039303A900234FF09040049505933A
:102EB00006940794FEF7A2F809B030BD0044004024
:102EC0007047FEE7FEE7FEE7FEE770477047704792
:102ED000FDF786BB0148FEF747B800BF5C01002044
:102EE00008B501224FF0FF330448FFF791FB00289B
:102EF0000CBF01204FF0FF3008BD00BFA40100202F
:102F000010B54FF0FF331446054892B2FFF729FB86
:102F10000138C0B2012801D8FFF7F6FE204610BDE7
:102F2000A40100204FF0FF3070474FF400534B6076
:102F30000020704701207047002070470F49D1F8EA
:102F4000883043F47003C1F888300D4B1A680020B4
:102F500042F001021A6098601A6822F0A85222F426
:102F600010221A604FF48052DA601A6822F480222C
:102F70001A6098614FF000638B60704700ED00E0CD
:102F800000100240DFF834D0002103E00C4B5B5806
:102F9000435004310B480C4B42189A42F6D30B4A6B
:102FA00002E0002342F8043B094B9A42F9D3FFF7B1
:102FB000C5FF00F011F8FFF753FDFEE70000012008
:102FC000B4410008000000206800002068000020D4
:102FD00020020020FEE7000070B50D4E0D4CA41B32
:102FE000A4100025A54209D10B4E0C4C00F08AFF1D
:102FF000A41BA4100025A54205D170BD56F82530AC
:1030000098470135EEE756F8253098470135F2E745
:10301000AC410008AC410008AC410008B0410008D8
:1030200002440346934200D1704703F8011BF9E7BD
:103030000FB40A4B13B51C6824B1A36913B9204619
:1030400000F024FA05AB049AA1680193204600F031
:10305000E1FB02B0BDE8104004B07047040000205E
:1030600070B50E46054618B183690BB900F00EFA2B
:10307000AB69AC6813B9284600F008FA234B9C42B0
:1030800017D16C68A3891B071DD52369DBB1013EED
:10309000A36816F8011F013BA360E9B9002B2EDAE3
:1030A00022460A21284600F03FF8013011D00A20BC
:1030B00070BD174B9C4201D1AC68E3E7154B9C42B5
:1030C00008BFEC68DEE72146284600F07FF80028BC
:1030D000DDD04FF0FF3070BD002B04DAA2699342BF
:1030E00006DB0A2904D023685A1C22601970CFE736
:1030F0002246284600F018F80130C9D1E9E72368D4
:103100000A205A1C2260187070BD00BF30410008B0
:103110005041000810410008024B01461868FFF7B3
:103120009FBF00BF04000020F8B50E4614460546B8
:1031300018B183690BB900F0A9F9214B9C422AD13F
:103140006C68A369A360A3891A072ED5236963B3AA
:1031500023692068C01A6369F6B29842374604DBD7
:103160002146284600F028F928BBA368013BA3604C
:1031700023685A1C22601E7063690130984204D093
:10318000A389DB0719D50A2E17D12146284600F05E
:1031900013F990B10FE00B4B9C4201D1AC68D0E722
:1031A000094B9C4208BFEC68CBE72146284600F05B
:1031B0000DF80028CCD04FF0FF373846F8BD00BFDF
:1031C000304100085041000810410008324B70B5F2
:1031D0001D6806460C4625B1AB6913B9284600F0B8
:1031E00055F92E4B9C420FD16C68B4F90C309AB251
:1031F00015072CD4D00611D40922326043F04003C5
:10320000A3814FF0FF3070BD254B9C4201D1AC68CB
:10321000EBE7244B9C4208BFEC68E6E7510712D568
:10322000616B41B104F14403994202D0304600F091
:103230001BFA00236363A38923F02403A3810023E3
:10324000636023692360A38943F00803A381236992
:103250004BB9A38903F42073B3F5007F03D0214653
:10326000304600F0C1F9A28912F001030CD000230E
:10327000A36063695B42A361236953B9B4F90C305D
:1032800013F08000BAD170BD920758BF6369A36084
:10329000F2E70020F7E700BF0400002030410008FB
:1032A00050410008104100088A892DE9F041054687
:1032B00010070C465AD44B68002B05DC0B6C002B16
:1032C00002DC0020BDE8F081E66A002EF9D0002380
:1032D00012F480522F682B6033D0606DA3895A0797
:1032E00005D56368C01A636B0BB1236CC01A002349
:1032F0000246E66A216A2846B047431CA38906D1E4
:1033000029681D294BD82B4ACA40D60747D5002229
:103310006260D9042269226004D5421C01D12B6865
:1033200003B96065616B2F600029CAD004F14403C2
:10333000994202D0284600F097F900206063BDE86A
:10334000F081216A01232846B047411CC6D12B6871
:10335000002BC3D01D2B01D0162B01D12F60B0E75D
:10336000A38943F04003A381BDE8F0810F69002FDA
:10337000A7D093070E6808BF4B690F6018BF0023E2
:10338000A6EB07088B60B8F1000F9ADD43463A467A
:10339000216AA66A2846B047002807DCA38943F0C3
:1033A0004003A3814FF0FF30BDE8F0810744A8EB54
:1033B0000008E8E70100402038B50B6905460C46D7
:1033C000DBB118B183690BB900F060F80C4B9C427B
:1033D00009D16C68B4F90C307BB121462846BDE8B0
:1033E0003840FFF761BF074B9C4201D1AC68F1E761
:1033F000054B9C4208BFEC68ECE7002038BD00BFDD
:10340000304100085041000810410008014900F017
:10341000A9B800BFB9330008002310B50446036003
:103420004360836081814366C2810361436183613C
:10343000194608225C30FFF7F3FD054B6362054B2C
:10344000A362054BE362054B2462236310BD00BFFA
:103450008D3D0008AF3D0008E73D00080B3E000829
:1034600070B54A1E682555430E4605F1740100F0FB
:1034700049F9044640B1002180E842000C30A060C8
:1034800005F16802FFF7CCFD204670BD836910B5D9
:10349000044633BB8364C3640365124B124A1B6842
:1034A0008262984204BF0123836100F01FF86060CC
:1034B000204600F01BF8A060204600F017F800221C
:1034C000E06004216068FFF7A7FF01220921A068DE
:1034D000FFF7A2FF02221221E068FFF79DFF012300
:1034E000A36110BD0C4100080D340008F8B51C4B59
:1034F0001E68B369074613B93046FFF7C7FF483661
:10350000B4687368013B03D5336833B13668F7E7B5
:10351000B4F90C506DB16834F4E704213846FFF774
:103520009FFF30600028F1D10C233B600446204609
:10353000F8BD4FF6FF73E3810123A3816566256023
:10354000A560656025616561A5610822294604F1D1
:103550005C00FFF765FD6563A563A564E564E6E7C8
:103560000C4100082DE9F8438046894600F14804E3
:10357000002614B93046BDE8F883A5686768013FA6
:1035800001D52468F5E7AB89012B07D9B5F90E30D1
:10359000013303D029464046C84706436835EEE765
:1035A00070B50E46B1F90E10002990B014461D46B4
:1035B00007DA00232B60B3891A0610D44FF4806316
:1035C0000EE001AA00F048FC0028F2DB029A02F4A7
:1035D0007042A2F500535A425A412A60EEE7402356
:1035E0000020236010B070BD8B8973B59D0706461F
:1035F0000C4607D504F1470323602361012363616F
:1036000002B070BD01AB6A46FFF7CAFF00990546DC
:10361000304600F077F848B9B4F90C309A05EFD489
:1036200023F0030343F00203A381E3E70D4BB362EE
:10363000A389206043F08003A381009B6361019B09
:1036400020615BB1B4F90E10304600F017FC28B1D0
:10365000A38923F0030343F00103A381A3891D433E
:10366000A581CDE70D34000838B50546002945D0C1
:1036700051F8043C0C1F002BB8BFE41800F020FCEC
:103680001F4A1368104633B9636014602846BDE8CA
:10369000384000F016BCA3420CD92168621893424E
:1036A00004BF1A685B68636004BF5218226004603C
:1036B000ECE713465A680AB1A242FAD919685818B9
:1036C000A0420BD120680144581882421960DDD114
:1036D000106852685A6001441960D7E702D90C2378
:1036E0002B60D3E7206821188A4204BF1168526812
:1036F000626004BF091821605C60C7E738BD00BF85
:103700008400002070B5CD1C25F0030508350C2D74
:1037100038BF0C25002D064601DBA94203D90C2336
:103720003360002070BD00F0CBFB234A14682146B3
:1037300091B9224C23681BB9304600F017FB20607A
:103740002946304600F012FB431C26D10C2333607F
:10375000304600F0B6FBE4E70B685B1B1AD40B2B7A
:103760000FD90B60CD50CC18304600F0AAFB04F105
:103770000B00231D20F00700C31A1BD05A42E25051
:1037800070BD8C420DBF63684B686360136018BFE7
:103790000C46E9E70C464968CAE7C41C24F0030458
:1037A000A04205D0211A304600F0E0FA0130CDD019
:1037B0002560D9E770BD00BF84000020880000208C
:1037C0009368013B002B10B4936009DA9469A3421B
:1037D00002DBCBB20A2B03D15DF8044BFFF7A4BC8C
:1037E0001368581C10601970C8B25DF8044B70471C
:1037F000F8B506460F461446D518AC4201D1002054
:1038000007E03A4614F8011B3046FFF7D9FF431C86
:10381000F3D1F8BD2DE9F04F9DB00C461746039348
:10382000064618B183690BB9FFF730FE7C4B9C420A
:1038300057D17468A38918075DD52369002B5AD026
:103840000023099320238DF8293030238DF82A3066
:103850004FF0010BB846454615F8013B002B55D1FA
:10386000B8EB070A0BD053463A4621463046FFF7DD
:10387000BFFF013000F0C480099B5344099398F8BE
:103880000030002B00F0BC8000234FF0FF32049387
:103890000793059206938DF853301A9305222978E1
:1038A0006048FCF79DFC05F10108049B002831D11C
:1038B000D90644BF20228DF853201A0744BF2B227B
:1038C0008DF853202A782A2A2CD0079A00210A2022
:1038D000A846013598F80030303B092B6DD971B3FB
:1038E00026E0514B9C4201D1B468A3E74F4B9C4268
:1038F00008BFF4689EE721463046FFF767FC0028C2
:103900009ED04FF0FF301DB0BDE8F08F252BA7D023
:10391000A846A0E7434A801A0BFA00F01843049027
:103920004546BBE7039A111D12680391002A01DB8B
:10393000079204E0524243F002030792049398F87E
:1039400000302E2B10D198F801302A2B08F10101FC
:1039500037D1039B1A1D1B680392002BB8BF4FF091
:10396000FF3308F102080593314D98F80010032247
:103970002846FCF735FC40B14023401B03FA00F019
:10398000049B0343049308F1010898F800102948A8
:103990008DF82810062208F10107FCF721FC002809
:1039A00034D0254B03BB039B073323F007030833B5
:1039B0000393099B4B4409934CE700FB023201211E
:1039C00086E70023059318460A258846013198F8B2
:1039D0000020303A092A03D9002BC5D00590C3E74F
:1039E00005FB00200123F0E703AB00932246134BB5
:1039F00004A93046AFF30080B0F1FF3F8146D8D133
:103A0000A3895B063FF57DAF09987CE703AB009384
:103A100022460A4B04A9304600F088F8ECE700BFC4
:103A20003041000870410008504100081041000872
:103A3000764100087A41000800000000F1370008D4
:103A40002DE9F04791461F468A680B69DDF8208012
:103A50009342B8BF1346C9F8003091F84320064698
:103A60000C4612B10133C9F800302368990642BFF1
:103A7000D9F800300233C9F80030256815F0060582
:103A800007D104F1190AE368D9F800209B1A9D4276
:103A900029DB94F843302268003318BF01239206D3
:103AA0002ED404F1430239463046C047013021D0BC
:103AB0002368E568D9F8002003F00603042B08BF4B
:103AC000AD1AA36822690CBF25EAE575002593426B
:103AD000C4BF9B1AED184FF000091A344D451BD195
:103AE0000020BDE8F0870123524639463046C047E2
:103AF000013003D14FF0FF30BDE8F0870135C2E758
:103B0000E1185A1C302081F84300224494F84510F3
:103B100082F843100233C4E7012322463946304677
:103B2000C0470130E6D009F10109D7E72DE9F0439C
:103B300017460A7E85B06E2A984606460C460C9BB0
:103B400001F1430E00F0BC801AD8632A2ED00AD8A7
:103B5000002A00F0C880582A00F08A8004F142054B
:103B600084F842202AE0642A01D0692AF6D121682B
:103B70001A6811F0800F23D0111D1960136827E017
:103B8000732A00F0B48008D86F2A2AD0702AE5D1B1
:103B90000A6842F020020A6003E0752A21D0782AE0
:103BA000DCD1782284F845206E4964E01A6801F17E
:103BB0004205111D1960136884F842300123A3E007
:103BC00011F0400F02F104011960D7D0B2F90030B2
:103BD000002B03DA2D225B4284F8432062490A223B
:103BE00017E02068196810F0800F03D0081D1860D6
:103BF0000B6806E010F0400F01F104001860F7D0E8
:103C00000B8859496F2A14BF0A220822002084F821
:103C100043006568A560002DC0F29C80206820F0FC
:103C200004002060002B3FD1002D40F095807546A8
:103C3000082A0BD12368DA0708D5236962689A42FB
:103C4000DEBF302305F8013C05F1FF35AEEB05037F
:103C50002361CDF800803B4603AA21463046FFF79A
:103C6000EFFE013055D14FF0FF3005B0BDE8F083D5
:103C700081F845203C492268186812F0800F00F155
:103C800004051D6001D0036802E05506FBD50388DA
:103C9000D00744BF42F0200222601BB9226822F004
:103CA000200222601022B1E77546B3FBF2F002FB5E
:103CB0001033CB5C05F8013D03460028F5D1B7E78A
:103CC00008681A68496910F0800F04D0101D186048
:103CD0001368196007E010F0400F02F1040018604B
:103CE0001368F6D01980002323617546B1E71A687E
:103CF000111D19601568626800212846FCF770FAEA
:103D000008B1401B606063682361002384F843307E
:103D10009FE723692A4639463046C0470130A2D082
:103D200023689B0707D5002504F11909E368039A66
:103D30009B1A9D4205DBE068039B9842B8BF18467A
:103D400093E701234A4639463046C04701308AD0BE
:103D50000135EBE7002BA7D10B7884F8423004F152
:103D6000420565E7924100088141000838B5064CDC
:103D7000002305460846236000F0B6F8431C02D134
:103D8000236803B12B6038BD1C02002010B50C461F
:103D9000B1F90E1000F096F80028ABBF636DA3894F
:103DA0001B1823F48053ACBF6365A38110BD2DE9BC
:103DB000F0411F468B89DB0505460C46164605D5A6
:103DC00002230022B1F90E1000F068F8A389B4F9BB
:103DD0000E1023F48053A38132463B462846BDE8AB
:103DE000F04100F017B810B50C46B1F90E1000F014
:103DF00055F8431CA38915BF606523F4805343F431
:103E00008053A38118BFA38110BDB1F90E1000F03B
:103E100013B8000038B5074C054608461146002285
:103E200022601A46FFF76CF8431C02D1236803B1E5
:103E30002B6038BD1C02002038B5064C0023054617
:103E400008462360FFF76EF8431C02D1236803B1D4
:103E50002B6038BD1C02002038B5074C00230546F6
:103E6000084611462360FFF760F8431C02D123681F
:103E700003B12B6038BD00BF1C02002038B5064CD2
:103E80000023054608462360FFF754F8431C02D17F
:103E9000236803B12B6038BD1C02002038B5074CE5
:103EA000054608461146002222601A46FFF744F8EC
:103EB000431C02D1236803B12B6038BD1C020020D3
:103EC0007047704738B5074C054608461146002232
:103ED00022601A46FFF704F8431C02D1236803B19D
:103EE0002B6038BD1C020020044B1968024609B93A
:103EF00003491960186802441A6070478C0000205A
:103F000020020020F8B500BFF8BC08BC9E467047F0
:0C3F1000F8B500BFF8BC08BC9E46704726
:103F1C0001040208001010100410101002101010F0
:103F2C00087C2D48656C6C6F2C2049276D20416DE9
:103F3C00616E21007C2D49276D20676F6F64007CBA
:103F4C002D486F772061726520796F753F007C2D4D
:103F5C005468616E6B20796F7521007C2D4E6963FE
:103F6C006520746F206D65657420796F752E007CEB
:103F7C002D476F6F64627965007C2D536D6172748F
:103F8C0020476C6F766500414443203E20313A2037
:103F9C0025642020323A2025642020333A202564E1
:103FAC002020343A2025642020353A202564200D29
:103FBC000A00416E676C65203E20313A2025642052
:103FCC0020323A2025642020333A202564202034E6
:103FDC003A2025642020353A202564200D0A0A0059
:103FEC007C2D49206E65656420776865656C636817
:103FFC00616972007C2D49276D20746972656400BB
:10400C007C2D49276D20736C65657079007C2D576C
:10401C00686572652773206D792070686F6E653FD7
:10402C00007C2D43616C6C206F6E2074686973206A
:10403C006E756D6265722E007C2D54656C6C206DF6
:10404C007920616464726573732E0046696E6765CE
:10405C00722042656E642061742033352E0D007C15
:10406C002D49206E65656420776174657200466920
:10407C006E6765722042656E642061742039302E43
:10408C000D007C2D49206E65656420666F6F6400A1
:10409C0046696E6765722042656E642061742031DA
:1040AC0032302E0D007C2D49206E656564206D65C7
:1040BC00646963696E650000000000000000000187
:1040CC0002030406070809000000000102030400B3
:1040DC00A0860100400D0300801A060000350C007C
:1040EC0040420F0080841E0000093D0000127A003F
:1040FC000024F40000366E010048E801006CDC027C
:10410C00080000200000000000000000000000007B
:10411C000000000000000000000000000000000093
:10412C000000000000000000000000000000000083
:10413C000000000000000000000000000000000073
:10414C000000000000000000000000000000000063
:10415C000000000000000000000000000000000053
:10416C0000000000232D302B2000686C4C0065668D
:10417C0067454647003031323334353637383941AC
:10418C0042434445460030313233343536373839C2
:08419C006162636465660000C6
:0841A4000CC1FF7F01000000C7
:0441AC00B501000851
:0441B0009101000871
:1041B40000093D0008000020000000003041000814
:1041C40050410008104100080000000000000000F9
:1041D40000000000000000000000000000000000DB
:1041E40000000000000000000000000000000000CB
:1041F40000000000000000000000000000000000BB
:1042040000000000000000000000000000000000AA
:084214000000000000000000A2
:0400000508002F853B
:00000001FF
